:100000000C943E000C9453000C9453000C94530039
:100010000C9453000C94CB020C9453000C9453009A
:100020000C9453000C9453000C9453000C94530004
:100030000C9453000C9453000C9453000C945300F4
:100040000C9453000C9453000C9453000C945300E4
:100050000C9453000C9453000C9453000C945300D4
:100060000C9453000C9453000C9453000C945300C4
:100070000C9453000C9453000C94530011241FBE95
:10008000CFEFD4E0DEBFCDBF11E0A0E0B1E0E0E80B
:10009000FDE002C005900D92A83DB107D9F70E947E
:1000A000F4020C94BE060C9400007F928F929F92F3
:1000B000AF92BF92CF92DF92EF92FF920F931F9376
:1000C000CF93DF9327B1277827B928B1277828B9AC
:1000D000179A00C000C026B1B6B1A6B176B0179885
:1000E00000C000C0179A00C000C086B096B0B6B07D
:1000F000A6B0179800C000C037B1386737B9269549
:100100002695269580E8289FE00111249E0133273B
:10011000B4FB882780F990E0002496958795079492
:10012000969587950794982F802D822B932BA5FB6E
:10013000EE24E0F8F12CD701AA0FBB1FA295B295CF
:10014000B07FBA27A07FBA27A82BB92B76FA002751
:1001500000F910E0C80182959295907F9827807FE2
:1001600098278A2B9B2B83FACC24C0F8D12C96019C
:10017000220F331F220F331F220F331F94FAEE2753
:10018000E0F9F0E0EE0FFF1FEE0FFF1F2E2B3F2BCD
:10019000A6FA442740F950E0422B532BB5FA6627C4
:1001A00060F970E0660F771F462B572B842BDF9189
:1001B000CF911F910F91FF90EF90DF90CF90BF9064
:1001C000AF909F908F907F9008951598169A00C0D9
:1001D00000C00E94550008950E94E500881F8827EE
:1001E000881F08950E94EC008111FCCF0895CF93E1
:1001F000179A98B1C82FCC1FCC27CC1FCC0FCC0F8F
:10020000CC0F97789C2B86FB442740F950E0429511
:100210005295507F5427407F5427492B982F907236
:10022000492B84FBAA27A0F9B0E00024B695A79536
:100230000794B695A7950794BA2FA02DA42BA8B91B
:1002400000C000C0179800C000C0179A98B1282FAE
:10025000217030E000243695279507943695279530
:100260000794322F202D9778292B982F9870292BBF
:1002700082FBEE27E0F9F0E0E295F295F07FFE27B1
:10028000E07FFE27E22B81FB662760F970E0660FB6
:10029000771F62957295707F7627607F76276E2B29
:1002A00068B900C000C0179800C000C0CF91089581
:1002B000CF93C82F0E94F2001598169800C000C076
:1002C0008C2F0E94F700CF91089587B1886787B976
:1002D00081B1806E81B91598169800C000C0179A38
:1002E00088B18778806288B900C000C0179800C0C4
:1002F00000C088E20E9458018FE00E94580186E009
:100300000E94580181E00E9458010895CF93C82FA0
:100310000E94F200159A169800C000C08C2F0E940F
:10032000F700CF910895CF93DF93EC018881882364
:1003300031F021960E94860189918111FBCFDF91D6
:10034000CF910895CF93DF93EB0180680E9458010D
:10035000CE010E949301DF91CF9108959A0121501F
:100360003109121613064CF4FC01A901480F591F5C
:1003700091819193E417F507D9F708950F931F938F
:10038000CF93DF9300D000D01F92CDB7DEB71A8293
:100390001982FE01339683E0DF011D928A95E9F709
:1003A00000E010E00E94B4038C830F5F1F4F60E0F9
:1003B00071E0CE0101960E94CB03892B49F044E005
:1003C00050E060E070E0CE0101960E94AE01EACFFD
:1003D000C8010F900F900F900F900F90DF91CF9169
:1003E0001F910F910895AF92BF92CF92DF92EF923B
:1003F000FF920F931F93CF93DF93CDB7DEB7609734
:100400000FB6F894DEBF0FBECDBF6C011A82198201
:10041000FE0133968EE0DF011D928A95E9F7F60121
:1004200001900020E9F731977F01EC18FD08188A48
:10043000B0E1EB16F10450F065E071E080E00E945D
:10044000A20165E071E080E40E94A20100E010E0FA
:100450005E01AE0CBF1C0E94B403F50180830F5FE8
:100460001F4FB601CE0101960E94CB03892B41F0AC
:10047000A70160E070E0CE0101960E94AE01EBCFD3
:10048000C80160960FB6F894DEBF0FBECDBFDF91F6
:10049000CF911F910F91FF90EF90DF90CF90BF9081
:1004A000AF9008950F931F93CF93DF9300D000D0A8
:1004B0001F92CDB7DEB71A821982FE01339683E010
:1004C000DF011D928A95E9F700E010E00E94B40375
:1004D0008C830F5F1F4F66E771E0CE0101960E948B
:1004E000CB03892B49F044E050E060E070E0CE019E
:1004F00001960E94AE01EACFC8010F900F900F90B5
:100500000F900F90DF91CF911F910F9108950F934E
:100510001F93CF93DF93CDB7DEB7C054D1090FB689
:10052000F894DEBF0FBECDBF8CE091E00E94BC030B
:100530000E94BE011F9283E38F9385E391E09F9316
:100540008F938E010F5F1F4F1F930F930E94D40351
:10055000C8010E94BC030E94BE0187E491E00E9492
:10056000BC030E94BE018BE791E00E94BC030E9485
:10057000BE010F900F900F900F900F900F90C05CE6
:10058000DF4F0FB6F894DEBF0FBECDBFDF91CF9126
:100590001F910F9108951F920F920FB60F92112481
:1005A0002F933F934F935F936F937F938F939F937B
:1005B000AF93BF93EF93FF931A9905C08BB1805807
:1005C0008BB90E948702FF91EF91BF91AF919F91EC
:1005D0008F917F916F915F914F913F912F910F90EC
:1005E0000FBE0F901F901895CF93DF93CDB7DEB756
:1005F000CA50D1400FB6F894DEBF0FBECDBF78947D
:1006000022982A9AE8E6F0E0808182608083ECE616
:10061000F0E08081846080830E9465010E948F03E6
:100620002FEF83ED90E3215080409040E1F700C030
:100630000000579A5F9A3A9A429A8BE891E00E949A
:10064000BC030E94BE0182E991E00E94BC030E94AB
:10065000BE0180EA91E00E94BC030E94BE0184EBCF
:1006600091E00E94BC030E94BE0169EB71E080E052
:100670000E94A2011A821982FE0133968EEFDF01D9
:100680001D928A95E9F7C12CD12C0F2EF4ED8F2EF7
:10069000F1E09F2EF02D5E01B1E0AB0EBB1E8CEBA6
:1006A00091E00E94F30186EC91E00E94F301FE01CB
:1006B00031967F0100E010E00E94B403803231F0F7
:1006C0000F5F1F4FD7018D937D01F6CFE1E0F0E082
:1006D000EC0FFD1FE00FF11F1082BE016F5F7F4F17
:1006E00080E00E94A2010E9452028BEC91E00E94E5
:1006F000F301BFEFCB1ADB0ADF92CF929F928F926A
:10070000BF92AF920E94D403B50180E40E94A2017F
:100710000F900F900F900F900F900F90C0CF1092EE
:10072000C50088E08093C400E2ECF0E080818F7B1C
:10073000808380818F7780838081846080838081C3
:10074000877F808380818F7E808380818F7D80837F
:1007500088E18093C1000895E0ECF0E0908195FF7E
:10076000FDCF8093C6000895E0ECF0E080818823FF
:10077000ECF78091C6000895CF93DF93EC01888158
:10078000882331F021960E94AC0389918111FBCF1F
:10079000DF91CF910895FB01DC018D9101908019CB
:1007A0000110D9F3990B0895AEE0B0E0EAEDF3E063
:1007B0000C9495060D891E8986E08C831A83098323
:1007C0008FEF9FE79E838D83AE01475E5F4F6F89FA
:1007D000788DCE0101960E94F603EF81F885E00F37
:1007E000F11F10822E96E4E00C94B106ABE0B0E06D
:1007F000ECEFF3E00C9487066C017B018A01FC01AD
:1008000017821682838181FFCCC1CE0101963C0103
:10081000F6019381F70193FD859193FF81917F010B
:10082000882309F4BAC1853239F493FD859193FF89
:1008300081917F01853229F4B60190E00E94ED0597
:10084000E7CF912C212C312CFFE1F315D8F08B321E
:1008500079F038F4803279F08332A1F4232D2061CD
:100860001DC08D3261F0803369F4232D216016C0E4
:10087000832D8260382EE32DE4603E2E2AC0F32DB6
:10088000F8601DC037FC2DC020ED280F2A3040F045
:100890008E32B9F436FC81C1232D2064322E19C06A
:1008A00036FE06C08AE0989E200D1124922E11C0BB
:1008B000EAE02E9E200D1124222EF32DF0623F2E11
:1008C00008C08C3621F4832D8068382E02C088360B
:1008D00041F4F70193FD859193FF81917F0181118F
:1008E000B3CF982F9F7D9554933028F40C5F1F4F02
:1008F0009FE399830DC0833631F0833771F08335E0
:1009000009F059C021C0F801808189830E5F1F4F13
:1009100088248394912C530113C02801F2E04F0ED8
:10092000511CF801A080B18036FE03C0692D70E033
:1009300002C06FEF7FEFC5010E94E2054C0182010A
:10094000F32DFF773F2E16C0280122E0420E511CE6
:10095000F801A080B18036FE03C0692D70E002C0AE
:100960006FEF7FEFC5010E94D7054C01F32DF068B2
:100970003F2E820133FC1BC0822D90E08816990621
:10098000B0F4B60180E290E00E94ED052A94F4CF25
:10099000F50137FC859137FE81915F01B60190E04A
:1009A0000E94ED0521102A9421E0821A91088114F9
:1009B000910471F7E8C0843611F0893641F5F801E9
:1009C00037FE07C060817181828193810C5F1F4F68
:1009D00008C060817181072E000C880B990B0E5F97
:1009E0001F4FF32DFF763F2E97FF09C090958095FE
:1009F000709561957F4F8F4F9F4FF0683F2E2AE093
:100A000030E0A3010E942906882E861845C085374C
:100A100031F4232D2F7EB22E2AE030E025C0932D15
:100A2000997FB92E8F36C1F018F4883579F0B5C0AA
:100A3000803719F0883721F0B0C0E92FE061BE2E71
:100A4000B4FE0DC0FB2DF460BF2E09C034FE0AC0F9
:100A5000292F2660B22E06C028E030E005C020E134
:100A600030E002C020E132E0F801B7FE07C060814B
:100A70007181828193810C5F1F4F06C060817181FB
:100A800080E090E00E5F1F4FA3010E942906882E90
:100A90008618FB2DFF773F2E36FE0DC0232D2E7FAF
:100AA000A22E891458F434FE0BC032FC09C0832DE9
:100AB0008E7EA82E05C0B82CA32C03C0B82C01C074
:100AC000B92CA4FE0FC0FE01E80DF11D808180331A
:100AD00021F49A2D997EA92E09C0A2FE06C0B394D6
:100AE000B39404C08A2D867809F0B394A3FC11C096
:100AF000A0FE06C0B21488F4280C922C9B180EC0DD
:100B0000B21460F4B60180E290E00E94ED05B39467
:100B1000F7CFB21418F42B1802C0982C212CA4FE85
:100B200010C0B60180E390E00E94ED05A2FE17C060
:100B3000A1FC03C088E790E002C088E590E0B60120
:100B40000CC08A2D867859F0A1FE02C08BE201C04C
:100B500080E2A7FC8DE2B60190E00E94ED058914C9
:100B600038F4B60180E390E00E94ED059A94F7CF47
:100B70008A94F301E80DF11D8081B60190E00E9496
:100B8000ED058110F5CF222009F442CEB60180E2B6
:100B900090E00E94ED052A94F6CFF60186819781B8
:100BA00002C08FEF9FEF2B96E2E10C94A306FC01AD
:100BB0000590615070400110D8F7809590958E0F88
:100BC0009F1F0895FC016150704001900110D8F7FB
:100BD000809590958E0F9F1F08950F931F93CF932D
:100BE000DF93FB01238121FD03C08FEF9FEF2CC01A
:100BF00022FF16C046815781248135814217530751
:100C000044F4A081B1819D012F5F3F4F3183208348
:100C10008C93268137812F5F3F4F3783268314C003
:100C20008B01EC01FB010084F185E02D0995892BF6
:100C3000E1F6D80116968D919C911797019617961B
:100C40009C938E931697CE01DF91CF911F910F91B8
:100C50000895FA01AA27283051F1203181F1E89452
:100C60006F936E7F6E5F7F4F8F4F9F4FAF4FB1E09F
:100C70003ED0B4E03CD0670F781F891F9A1FA11D9A
:100C8000680F791F8A1F911DA11D6A0F711D811D9B
:100C9000911DA11D20D009F468943F912AE0269F60
:100CA00011243019305D3193DEF6CF010895462FBF
:100CB0004770405D4193B3E00FD0C9F7F6CF462FA0
:100CC0004F70405D4A3318F0495D31FD4052419309
:100CD00002D0A9F7EACFB4E0A695979587957795C6
:100CE0006795BA95C9F700976105710508959B014D
:100CF000AC010A2E06945795479537952795BA95D6
:100D0000C9F7620F731F841F951FA01D08952F92AE
:100D10003F924F925F926F927F928F929F92AF928B
:100D2000BF92CF92DF92EF92FF920F931F93CF93D8
:100D3000DF93CDB7DEB7CA1BDB0B0FB6F894DEBF6F
:100D40000FBECDBF09942A88398848885F846E8495
:100D50007D848C849B84AA84B984C884DF80EE80DF
:100D6000FD800C811B81AA81B981CE0FD11D0FB6E8
:100D7000F894DEBF0FBECDBFED010895F894FFCF0C
:100D80004F4B0D0A004E41534F4C210041542B4311
:100D9000495053544152543D302C22544350222C3C
:100DA000223139322E3136382E342E33222C38303F
:100DB00038300D0A0041542B43495053454E443DB1
:100DC000302C25640D0A00474554202F6170692F8F
:100DD00073616C757420485454502F312E310D0AB4
:100DE000486F73743A203139322E3136382E342E12
:100DF000333A383038300D0A0D0A0041542B43493C
:100E000050434C4F53453D300D0A00415445300D81
:100E10000A0041542B4349504D55583D310D0A00AD
:100E200041542B4349505345525645523D312C387D
:100E3000300D0A0041540D0A006F6B00434F4E4EB7
:100E40004543540D0A004745542000434C4F534539
:080E5000440D0A0025640000B6
:00000001FF
