:100000000C943E000C9453000C9453000C94530039
:100010000C9453000C9453000C9453000C94530014
:100020000C9453000C9453000C9453000C94530004
:100030000C9453000C9453000C9453000C945300F4
:100040000C9453000C9453000C9453000C945300E4
:100050000C9453000C9453000C9453000C945300D4
:100060000C9453000C9453000C9453000C945300C4
:100070000C9453000C9453000C94530011241FBE95
:10008000CFEFD4E0DEBFCDBF11E0A0E0B1E0EAEBFE
:10009000F4E002C005900D92A631B107D9F70E9495
:1000A000AE010C945B020C9400007F928F929F92A1
:1000B000AF92BF92CF92DF92EF92FF920F931F9376
:1000C000CF93DF9327B1277827B928B1277828B9AC
:1000D000179A00C000C026B1B6B1A6B176B0179885
:1000E00000C000C0179A00C000C086B096B0B6B07D
:1000F000A6B0179800C000C037B1386737B9269549
:100100002695269580E8289FE00111249E0133273B
:10011000B4FB882780F990E0002496958795079492
:10012000969587950794982F802D822B932BA5FB6E
:10013000EE24E0F8F12CD701AA0FBB1FA295B295CF
:10014000B07FBA27A07FBA27A82BB92B76FA002751
:1001500000F910E0C80182959295907F9827807FE2
:1001600098278A2B9B2B83FACC24C0F8D12C96019C
:10017000220F331F220F331F220F331F94FAEE2753
:10018000E0F9F0E0EE0FFF1FEE0FFF1F2E2B3F2BCD
:10019000A6FA442740F950E0422B532BB5FA6627C4
:1001A00060F970E0660F771F462B572B842BDF9189
:1001B000CF911F910F91FF90EF90DF90CF90BF9064
:1001C000AF909F908F907F9008951598169A00C0D9
:1001D00000C00E94550008950E94E500881F8827EE
:1001E000881F08950E94EC008111FCCF0895CF93E1
:1001F000179A98B1C82FCC1FCC27CC1FCC0FCC0F8F
:10020000CC0F97789C2B86FB442740F950E0429511
:100210005295507F5427407F5427492B982F907236
:10022000492B84FBAA27A0F9B0E00024B695A79536
:100230000794B695A7950794BA2FA02DA42BA8B91B
:1002400000C000C0179800C000C0179A98B1282FAE
:10025000217030E000243695279507943695279530
:100260000794322F202D9778292B982F9870292BBF
:1002700082FBEE27E0F9F0E0E295F295F07FFE27B1
:10028000E07FFE27E22B81FB662760F970E0660FB6
:10029000771F62957295707F7627607F76276E2B29
:1002A00068B900C000C0179800C000C0CF91089581
:1002B000CF93C82F0E94F2001598169800C000C076
:1002C0008C2F0E94F700CF91089587B1886787B976
:1002D00081B1806E81B91598169800C000C0179A38
:1002E00088B18778806288B900C000C0179800C0C4
:1002F00000C088E20E9458018FE00E94580186E009
:100300000E94580181E00E9458010895CF93C82FA0
:100310000E94F200159A169800C000C08C2F0E940F
:10032000F700CF910895CF93DF93EC018881882364
:1003300031F021960E94860189918111FBCFDF91D6
:10034000CF910895CF93DF93EB0180680E9458010D
:10035000CE010E949301DF91CF910895CF93DF9357
:1003600000D01F92CDB7DEB70E94650160E071E05A
:1003700080E40E94A201579A5F9A3A9A429A279A79
:10038000269A2F9A2E9A0E9422022FEF83ED90E355
:10039000215080409040E1F700C0000069E071E02A
:1003A00080E00E94A20181E40E943F0267E071E0C8
:1003B00080E00E94A20184E50E943F026BE071E0B0
:1003C00080E00E94A2018DE00E943F026FE071E098
:1003D00080E00E94A2018AE00E943F026DE071E08D
:1003E00080E00E94A2010E945302082F61E171E0A7
:1003F00080E00E94A2010E945302182F63E171E085
:1004000080E00E94A2012FEF8BE792E9215080400B
:100410009040E1F700C0000009831A831B82BE01EF
:100420006F5F7F4F80E00E94A2018BB180588BB933
:100430002FEF89E698E1215080409040E1F700C01D
:100440000000F3CF88E18093C1001092C50088E0DE
:100450008093C400E2ECF0E080818064808380813E
:100460008F7780838081846080838081877F808391
:1004700080818F7E808380818F7D80830895E0ECF2
:10048000F0E0908195FFFDCF9091C000992344F456
:10049000A6ECB0E0E0ECF0E09C9190819923E4F3CD
:1004A0008093C6000895E0ECF0E080818823ECF7AB
:0A04B0008091C6000895F894FFCF74
:1004BA004D69686E656100312E3100312E3200318E
:0604CA002E330034000097
:00000001FF
