S00E00004D69686E65612E73726563C4
S11300000C947F000C9494000C9494000C94940031
S11300100C9494000C94CB030C9494000C949400D2
S11300200C9494000C9494000C9494000C949400FC
S11300300C9494000C9494000C9494000C949400EC
S11300400C9494000C9494000C9494000C949400DC
S11300500C9494000C9494000C9494000C949400CC
S11300600C9494000C9494000C9494000C949400BC
S11300700C9494000C9494000C94940007634236FE
S1130080B79BD8A71A39685618AEBAAB558C1D3C25
S1130090B7CC5763BD6DEDFD753EF6177231BF00E9
S11300A00000803F08000000BE922449123EABAA23
S11300B0AA2ABECDCCCC4C3E00000080BEABAAAA7E
S11300C0AA3E00000000BF000000803F00000000C6
S11300D000084178D3BB4387D1133D190E3CC3BDFF
S11300E04282AD2B3E68EC8276BED98FE1A93E4CAC
S11300F080EFFFBE01C4FF7F3F0000000000112419
S11301001FBECFEFD4E0DEBFCDBF12E0A0E0B1E070
S1130110E6E3F7E102C005900D92A431B107D9F7E7
S11301200E945F040C94990B0C9400007F928F92B0
S11301309F92AF92BF92CF92DF92EF92FF920F9372
S11301401F93CF93DF9327B1277827B928B1277856
S113015028B9179A00C000C026B1B6B1A6B176B0CE
S1130160179800C000C0179A00C000C086B096B0AF
S1130170B6B0A6B0179800C000C037B1386737B919
S113018026952695269580E8289FE00111249E0156
S11301903327B4FB882780F990E00024969587954F
S11301A00794969587950794982F802D822B932BEF
S11301B0A5FBEE24E0F8F12CD701AA0FBB1FA295F2
S11301C0B295B07FBA27A07FBA27A82BB92B76FAAD
S11301D0002700F910E0C80182959295907F982736
S11301E0807F98278A2B9B2B83FACC24C0F8D12CB0
S11301F09601220F331F220F331F220F331F94FA4D
S1130200EE27E0F9F0E0EE0FFF1FEE0FFF1F2E2B9D
S11302103F2BA6FA442740F950E0422B532BB5FA62
S1130220662760F970E0660F771F462B572B842BE7
S1130230DF91CF911F910F91FF90EF90DF90CF90BE
S1130240BF90AF909F908F907F9008951598169AC5
S113025000C000C00E94960008950E942601881FD5
S11302608827881F08950E942D018111FCCF0895CD
S1130270CF93179A98B1C82FCC1FCC27CC1FCC0F83
S1130280CC0FCC0F97789C2B86FB442740F950E089
S113029042955295507F5427407F5427492B982FDD
S11302A09072492B84FBAA27A0F9B0E00024B695EC
S11302B0A7950794B695A7950794BA2FA02DA42BBC
S11302C0A8B900C000C0179800C000C0179A98B120
S11302D0282F217030E00024369527950794369511
S11302E027950794322F202D9778292B982F9870D3
S11302F0292B82FBEE27E0F9F0E0E295F295F07FFE
S1130300FE27E07FFE27E22B81FB662760F970E081
S1130310660F771F62957295707F7627607F7627C8
S11303206E2B68B900C000C0179800C000C0CF9100
S11303300895CF93C82F0E9433011598169800C0D2
S113034000C08C2F0E943801CF91089587B188672F
S113035087B981B1806E81B91598169800C000C024
S1130360179A88B18778806288B900C000C017984E
S113037000C000C088E20E9499018FE00E949901A8
S113038086E00E94990181E00E9499010895CF932B
S1130390C82F0E943301159A169800C000C08C2FF4
S11303A00E943801CF910895CF93DF93EC018881A7
S11303B0882331F021960E94C70189918111FBCFD6
S11303C0DF91CF910895CF93DF93EB0180680E9472
S11303D09901CE010E94D401DF91CF91089560E08C
S11303E071E080E00E94E301089560E071E080E440
S11303F00E94E3010895ECE7F0E0108280818160BF
S1130400808380818064808380818F7780838081F2
S11304108F7D8083EAE7F0E01082808180688083AA
S11304200895ECE7F0E020812E7F208320812D7F4A
S1130430208320812B7F2083208183709927822B26
S113044080830895EAE7F0E08081806480830895E2
S1130450EAE7F0E0808184FFFDCF809178009091FD
S11304607900089580E090E00E9411020E94220227
S11304700E942802BC0180E090E00E94260620E051
S113048030E44CE955E40E94B40620E030E040E852
S11304905AE30E94B40620E030E04AEF53E40E949D
S11304A0180520E030E040E251E40E9485050895FB
S11304B082E090E00E9411020E9422020E9428021F
S11304C0BC0180E090E00E94260620E030E040EA93
S11304D050E40E94B40620E030E040E85AE30E9471
S11304E0B4069B01AC0160E070E080E291E40E94FC
S11304F02107089584E090E00E9411020E942202E4
S11305000E942802BC0180E090E00E94260620E0C0
S113051030E048EC52E40E94B40620E030E040E8C9
S11305205AE30E94B40608959A0121503109121623
S113053013064CF4FC01A901480F591F91819193B2
S1130540E417F507D9F708950F931F93CF93DF931B
S113055000D000D01F92CDB7DEB71A821982FE01F7
S1130560339683E0DF011D928A95E9F700E010E0FD
S11305700E9401058C830F5F1F4F61E171E0CE0182
S113058001960E94A608892B49F044E050E060E0FF
S113059070E0CE0101960E949402EACFC8010F9048
S11305A00F900F900F900F90DF91CF911F910F91AB
S11305B00895AF92BF92CF92DF92EF92FF920F9382
S11305C01F93CF93DF93CDB7DEB760970FB6F89440
S11305D0DEBF0FBECDBF6C011A821982FE013396B5
S11305E08EE0DF011D928A95E9F7F6010190002063
S11305F0E9F731977F01EC18FD08188AB0E1EB1692
S1130600F10450F066E171E080E00E94E30166E1EC
S113061071E080E40E94E30100E010E05E01AE0CB2
S1130620BF1C0E940105F50180830F5F1F4FB601B7
S1130630CE0101960E94A608892B41F0A70160E033
S113064070E0CE0101960E949402EBCFC80160963F
S11306500FB6F894DEBF0FBECDBFDF91CF911F91CF
S11306600F91FF90EF90DF90CF90BF90AF900895DF
S11306700F931F93CF93DF9300D000D01F92CDB779
S1130680DEB71A821982FE01339683E0DF011D92E0
S11306908A95E9F700E010E00E9401058C830F5F62
S11306A01F4F6CE671E0CE0101960E94A608892BCB
S11306B049F044E050E060E070E0CE0101960E9411
S11306C09402EACFC8010F900F900F900F900F90F3
S11306D0DF91CF911F910F910895EF92FF920F93A5
S11306E01F93CF93DF93CDB7DEB7C052D1400FB67F
S11306F0F894DEBF0FBECDBF5F934F937F936F938C
S11307009F938F938DE191E09F938F938E010F5F61
S11307101F4F1F930F930E94AF0881E791E00E943F
S113072009050E94A402F80101900020E9F731971D
S1130730E01BF10BFF93EF938AE991E09F938F9372
S11307407E0181E0E80EF81EFF92EF920E94AF084E
S1130750C7010E9409050E94A402C8010E9409055C
S11307600E94A4028CEA91E00E9409050E94A4025E
S11307700FB6F894DEBF0FBECDBFC05EDE4F0FB61E
S1130780F894DEBF0FBECDBFDF91CF911F910F91C3
S1130790FF90EF9008951F920F920FB60F921124BD
S11307A04F925F926F927F928F929F92AF92BF927D
S11307B0CF92DF92EF92FF920F931F932F933F9369
S11307C04F935F936F937F938F939F93AF93BF9355
S11307D0EF93FF93CF93DF93CDB7DEB7A097DEBF40
S11307E0CDBF1A9945C08BB180588BB90E94320293
S11307F04B015C010E9458022B013C010E947A02C9
S11308006B017C010E94F501C701B6010E94F70546
S1130810C62ED72EC301B2010E94F705E62EF72E8D
S1130820C501B4010E94F705062F172FDF92CF925E
S1130830FF92EF927F936F938CEB91E09F938F9352
S1130840CE0101965C019F938F930E94AF08B5017E
S113085080E40E94E3014C2D5D2D6E2D7F2D802FB1
S1130860912F0E946D030FB6F894DEBF0FBECDBF6B
S1130870A0960FB6F894DEBF0FBECDBFDF91CF9127
S1130880FF91EF91BF91AF919F918F917F916F9164
S11308905F914F913F912F911F910F91FF90EF9096
S11308A0DF90CF90BF90AF909F908F907F906F908C
S11308B05F904F900F900FBE0F901F901895CF939D
S11308C0DF93CDB7DEB7DA950FB6F894DEBF0FBE6F
S11308D0CDBF789422982A9AE8E6F0E0808182607D
S11308E08083ECE6F0E08081846080830E94A6012E
S11308F00E94DC040E94FB012FEF83ED90E3215062
S113090080409040E1F700C00000579A5F9A3A9AFD
S1130910429A89EC91E00E9409050E94A40280EDAC
S113092091E00E9409050E94A4028EED91E00E94CC
S113093009050E94A40282EF91E00E9409050E9429
S1130940A40267EF71E080E00E94E3011A82198239
S1130950FE0133968EEFDF011D928A95E9F78AEF47
S113096091E00E94D90284E092E00E94D902FE0143
S113097031967F0100E010E00E940105803231F0E1
S11309800F5F1F4FD7018D937D01F6CFE1E0F0E0BB
S1130990EC0FFD1FE00FF11F10820E94EF01BE015A
S11309A06F5F7F4F80E00E94E3010E9438038AE07A
S11309B092E00E94D902D3CF1092C50088E08093C0
S11309C0C400E2ECF0E080818F7B808380818F77AC
S11309D080838081846080838081877F808380811D
S11309E08F7E808380818F7D808388E18093C100A6
S11309F00895E0ECF0E0908195FFFDCF8093C60070
S1130A000895E0ECF0E080818823ECF78091C60043
S1130A100895CF93DF93EC018881882331F02196E8
S1130A200E94F90489918111FBCFDF91CF91089540
S1130A305058BB27AA270E9430050C947A060E94BE
S1130A406C0638F00E94730620F039F49F3F19F4C5
S1130A5026F40C9469060EF4E095E7FB0C94630607
S1130A60E92F0E948B0658F3BA17620773078407AD
S1130A70950720F079F4A6F50C94AD060EF4E095F4
S1130A800B2EBA2FA02D0B01B90190010C01CA0144
S1130A90A0011124FF27591B99F0593F50F4503EEF
S1130AA068F11A16F040A22F232F342F4427585FE1
S1130AB0F3CF469537952795A795F0405395C9F7F9
S1130AC07EF41F16BA0B620B730B840BBAF09150B1
S1130AD0A1F0FF0FBB1F661F771F881FC2F70EC050
S1130AE0BA0F621F731F841F48F487957795679523
S1130AF0B795F7959E3F08F0B0CF9395880F08F00F
S1130B009927EE0F9795879508950E9499050C945F
S1130B107A060E94730658F00E946C0640F029F48D
S1130B205F3F29F00C94630651110C94AE060C94AB
S1130B3069060E948B0668F39923B1F3552391F358
S1130B40951B550BBB27AA2762177307840738F038
S1130B509F5F5F4F220F331F441FAA1FA9F335D095
S1130B600E2E3AF0E0E832D091505040E695001C49
S1130B70CAF72BD0FE2F29D0660F771F881FBB1F03
S1130B80261737074807AB07B0E809F0BB0B802DE1
S1130B90BF01FF2793585F4F3AF09E3F510578F00D
S1130BA00C9463060C94AE065F3FE4F3983ED4F3D2
S1130BB0869577956795B795F7959F5FC9F7880FE1
S1130BC0911D9695879597F90895E1E0660F771F33
S1130BD0881FBB1F621773078407BA0720F0621BC4
S1130BE0730B840BBA0BEE1F88F7E09508950E94EF
S1130BF0930688F09F5798F0B92F9927B751B0F012
S1130C00E1F0660F771F881F991F1AF0BA95C9F78C
S1130C1014C0B13091F00E94AD06B1E008950C9477
S1130C20AD06672F782F8827B85F39F0B93FCCF32A
S1130C30869577956795B395D9F73EF49095809509
S1130C40709561957F4F8F4F9F4F0895E89409C029
S1130C5097FB3EF490958095709561957F4F8F4FEB
S1130C609F4F9923A9F0F92F96E9BB279395F69501
S1130C70879577956795B795F111F8CFFAF4BB0F7F
S1130C8011F460FF1BC06F5F7F4F8F4F9F4F16C0E3
S1130C90882311F096E911C0772321F09EE8872F6D
S1130CA0762F05C0662371F096E8862F70E060E029
S1130CB02AF09A95660F771F881FDAF7880F9695A2
S1130CC0879597F9089597F99F6780E870E060E049
S1130CD008959FEF80EC089500240A9416161706D1
S1130CE018060906089500240A9412161306140619
S1130CF005060895092E0394000C11F4882352F07C
S1130D00BB0F40F4BF2B11F460FF04C06F5F7F4F33
S1130D108F4F9F4F089557FD9058440F551F59F01A
S1130D205F3F71F04795880F97FB991F61F09F3FD4
S1130D3079F087950895121613061406551FF2CFFD
S1130D404695F1DF08C0161617061806991FF1CF4D
S1130D5086957105610508940895E894BB27662774
S1130D607727CB0197F908950E94C7060C947A0659
S1130D700E946C0638F00E94730620F0952311F04F
S1130D800C9463060C94690611240C94AE060E941C
S1130D908B0670F3959FC1F3950F50E0551F629F2A
S1130DA0F001729FBB27F00DB11D639FAA27F00DC0
S1130DB0B11DAA1F649F6627B00DA11D661F829FE7
S1130DC02227B00DA11D621F739FB00DA11D621FCC
S1130DD0839FA00D611D221F749F3327A00D611DE9
S1130DE0231F849F600D211D822F762F6A2F1124CB
S1130DF09F5750409AF0F1F088234AF0EE0FFF1FFE
S1130E00BB1F661F771F881F91505040A9F79E3F54
S1130E10510580F00C9463060C94AE065F3FE4F336
S1130E20983ED4F3869577956795B795F795E795AA
S1130E309F5FC1F7FE2B880F911D9695879597F9B3
S1130E400895FA01EE0FFF1F309621053105A1F137
S1130E506115710561F48038BFE39B0749F168941B
S1130E609038810561F08038BFEF9B0741F09923EA
S1130E704AF5FF3FE1053105210519F1E89408948D
S1130E80E795D901AA2329F4AB2FBE2FF85FD0F33D
S1130E9010C0FF5F70F4A695E0F7F73950F019F031
S1130EA0FF3A38F49F779F930DD00F9007FC90582A
S1130EB0089546F00C94690660E070E080E89FE3D2
S1130EC008954FE79F775F934F933F932F930E942B
S1130ED01C082F913F914F915F910E94B4060C948E
S1130EE0790729F416F00C9463060C94AD060C945F
S1130EF069060E949306A8F39638A0F707F80F92A4
S1130F00E8942BE33AEA48EB5FE70E94CA060F92A3
S1130F100F920F924DB75EB70F920E946408ECE7F0
S1130F20F0E00E94AB074F915F91EF91FF91E5953F
S1130F30EE1FFF1F49F0FE57E0684427EE0F441FE1
S1130F40FA95E1F74195550B0E94DE070F9007FED5
S1130F500C94D2070895DF93CF931F930F93FF92BE
S1130F60EF92DF927B018C01689406C0DA2EEF01C8
S1130F700E94C706FE01E894A591259135914591FB
S1130F805591A6F3EF010E943005FE019701A801D7
S1130F90DA9469F7DF90EF90FF900F911F91CF9152
S1130FA0DF9108959B01AC0160E070E080E89FE36D
S1130FB00C9485050C9463060C9498080E9493067F
S1130FC0D8F39923C9F3940F511DA3F391505040C2
S1130FD094F059F0882332F0660F771F881F9150E0
S1130FE05040C1F79E3F51052CF7880F911D9695EF
S1130FF0879597F908955F3FACF0983E9CF0BB2726
S1131000869577956795B79508F4B1609395C1F780
S1131010BB0F58F711F460FFE8CF6F5F7F4F8F4F1E
S11310209F4FE3CF0C94AE0616F00C9498080C94E2
S1131030690668940C9463060E949306A8F39923A6
S1131040C1F3AEF3DF93CF931F930F93FF92C92F96
S1131050DD2788232AF02197660F771F881FDAF788
S113106020E030E040E85FEB9FE3883920F0803EE9
S113107038F021968F770E941905E4EAF0E004C065
S11310800E941905E1EDF0E00E94AB078B01BE015F
S1131090EC01FB2E6F5771097595771F880B990B1F
S11310A00E94280628E132E741E35FE30E94C70675
S11310B0AF2D9801AE01FF900F911F91CF91DF9159
S11310C00E9430050C947A06FA01DC01AA0FBB1FBA
S11310D09B01AC01BF5728F42227332744275078BB
S11310E020C0B75190F4AB2F00244695379527952F
S11310F0011CA395D2F3002071F0220F331F441F6B
S1131100B395DAF30ED00C94180561307105A0E89C
S11311108A07B94630F49B01AC01662777278827F4
S11311209078309621F0208331834283538308954D
S11311309F3F31F0915020F4879577956795B79547
S1131140880F911D9695879597F90895FB01DC0109
S11311508D91019080190110D9F3990B0895AEE097
S1131160B0E0E5EBF8E00C94700B0D891E8986E085
S11311708C831A8309838FEF9FE79E838D83AE014F
S1131180475E5F4F6F89788DCE0101960E94D1082A
S1131190EF81F885E00FF11F10822E96E4E00C94A5
S11311A08C0BABE0B0E0E7EDF8E00C94620B6C0163
S11311B07B018A01FC0117821682838181FFCCC1E5
S11311C0CE0101963C01F6019381F70193FD8591CF
S11311D093FF81917F01882309F4BAC1853239F4E0
S11311E093FD859193FF81917F01853229F4B601A6
S11311F090E00E94C80AE7CF912C212C312CFFE10A
S1131200F315D8F08B3279F038F4803279F08332E8
S1131210A1F4232D20611DC08D3261F0803369F467
S1131220232D216016C0832D8260382EE32DE460C7
S11312303E2E2AC0F32DF8601DC037FC2DC020EDD2
S1131240280F2A3040F08E32B9F436FC81C1232DA8
S11312502064322E19C036FE06C08AE0989E200D06
S11312601124922E11C0EAE02E9E200D1124222E6C
S1131270F32DF0623F2E08C08C3621F4832D806854
S1131280382E02C0883641F4F70193FD859193FF0F
S113129081917F018111B3CF982F9F7D9554933015
S11312A028F40C5F1F4F9FE399830DC0833631F000
S11312B0833771F0833509F059C021C0F80180816A
S11312C089830E5F1F4F88248394912C530113C08C
S11312D02801F2E04F0E511CF801A080B18036FEC7
S11312E003C0692D70E002C06FEF7FEFC5010E945B
S11312F0BD0A4C018201F32DFF773F2E16C0280151
S113130022E0420E511CF801A080B18036FE03C0D9
S1131310692D70E002C06FEF7FEFC5010E94B20A31
S11313204C01F32DF0683F2E820133FC1BC0822D4B
S113133090E088169906B0F4B60180E290E00E942D
S1131340C80A2A94F4CFF50137FC859137FE8191C0
S11313505F01B60190E00E94C80A21102A9421E09E
S1131360821A91088114910471F7E8C0843611F04F
S1131370893641F5F80137FE07C0608171818281A9
S113138093810C5F1F4F08C060817181072E000C90
S1131390880B990B0E5F1F4FF32DFF763F2E97FF9F
S11313A009C090958095709561957F4F8F4F9F4FA1
S11313B0F0683F2E2AE030E0A3010E94040B882E3F
S11313C0861845C0853731F4232D2F7EB22E2AE0AE
S11313D030E025C0932D997FB92E8F36C1F018F4D3
S11313E0883579F0B5C0803719F0883721F0B0C05E
S11313F0E92FE061BE2EB4FE0DC0FB2DF460BF2EBC
S113140009C034FE0AC0292F2660B22E06C028E087
S113141030E005C020E130E002C020E132E0F80114
S1131420B7FE07C060817181828193810C5F1F4F79
S113143006C06081718180E090E00E5F1F4FA301C0
S11314400E94040B882E8618FB2DFF773F2E36FE54
S11314500DC0232D2E7FA22E891458F434FE0BC008
S113146032FC09C0832D8E7EA82E05C0B82CA32C77
S113147003C0B82C01C0B92CA4FE0FC0FE01E80DB6
S1131480F11D8081803321F49A2D997EA92E09C003
S1131490A2FE06C0B394B39404C08A2D867809F0E2
S11314A0B394A3FC11C0A0FE06C0B21488F4280CA7
S11314B0922C9B180EC0B21460F4B60180E290E046
S11314C00E94C80AB394F7CFB21418F42B1802C0C0
S11314D0982C212CA4FE10C0B60180E390E00E9459
S11314E0C80AA2FE17C0A1FC03C088E790E002C0AE
S11314F088E590E0B6010CC08A2D867859F0A1FEEB
S113150002C08BE201C080E2A7FC8DE2B60190E04C
S11315100E94C80A891438F4B60180E390E00E945E
S1131520C80A9A94F7CF8A94F301E80DF11D8081DB
S1131530B60190E00E94C80A8110F5CF222009F478
S113154042CEB60180E290E00E94C80A2A94F6CF07
S1131550F6018681978102C08FEF9FEF2B96E2E11F
S11315600C947E0BFC010590615070400110D8F77B
S1131570809590958E0F9F1F0895FC0161507040D7
S113158001900110D8F7809590958E0F9F1F0895B4
S11315900F931F93CF93DF93FB01238121FD03C09E
S11315A08FEF9FEF2CC022FF16C046815781248104
S11315B035814217530744F4A081B1819D012F5F07
S11315C03F4F318320838C93268137812F5F3F4F98
S11315D03783268314C08B01EC01FB010084F18561
S11315E0E02D0995892BE1F6D80116968D919C91F1
S11315F01797019617969C938E931697CE01DF91B9
S1131600CF911F910F910895FA01AA27283051F123
S1131610203181F1E8946F936E7F6E5F7F4F8F4F1F
S11316209F4FAF4FB1E03ED0B4E03CD0670F781F7E
S1131630891F9A1FA11D680F791F8A1F911DA11D63
S11316406A0F711D811D911DA11D20D009F468949C
S11316503F912AE0269F11243019305D3193DEF644
S1131660CF010895462F4770405D4193B3E00FD0FA
S1131670C9F7F6CF462F4F70405D4A3318F0495DE5
S113168031FD4052419302D0A9F7EACFB4E0A695C8
S11316909795879577956795BA95C9F700976105EA
S11316A0710508959B01AC010A2E06945795479540
S11316B037952795BA95C9F7620F731F841F951F35
S11316C0A01D08952F923F924F925F926F927F9246
S11316D08F929F92AF92BF92CF92DF92EF92FF923E
S11316E00F931F93CF93DF93CDB7DEB7CA1BDB0BEA
S11316F00FB6F894DEBF0FBECDBF09942A8839888F
S113170048885F846E847D848C849B84AA84B98495
S1131710C884DF80EE80FD800C811B81AA81B981A1
S1131720CE0FD11D0FB6F894DEBF0FBECDBFED01B5
S10917300895F894FFCFB8
S1131736202020202020202020202020202020209F
S1131746004F4B0D0A004E41534F4C210047455460
S1131756202F6170692F73656E64446174613F74F0
S1131766656D703D2575266C696768743D2575261B
S1131776656172746848756D3D25752048545450EA
S11317862F312E310D0A486F73743A203139322EB7
S11317963136382E342E333A383038300D0A0D0AA5
S11317A60041542B43495053544152543D302C224A
S11317B6544350222C223139322E3136382E342ECF
S11317C633222C383038300D0A0041542B4349500B
S11317D653454E443D302C25640D0A0041542B4399
S11317E64950434C4F53453D300D0A00257543205F
S11317F625754C202575252500415445300D0A00D4
S113180641542B4349504D55583D310D0A0041541E
S11318162B4349505345525645523D312C38300DD1
S11318260A0041540D0A006F6B00434F4E4E454368
S1131836540D0A00474554202F00434C4F5345444A
S10718460D0A000083
S9030000FC
