S00E00004D69686E65612E73726563C4
S11300000C943E000C9453000C9453000C94530035
S11300100C9453000C9437020C9453000C9453002A
S11300200C9453000C9453000C9453000C94530000
S11300300C9453000C9453000C9453000C945300F0
S11300400C9453000C9453000C9453000C945300E0
S11300500C9453000C9453000C9453000C945300D0
S11300600C9453000C9453000C9453000C945300C0
S11300700C9453000C9453000C94530011241FBE91
S1130080CFEFD4E0DEBFCDBF11E0A0E0B1E0EAE9FC
S1130090FBE002C005900D92AA3BB107D9F70E947C
S11300A060020C94CB050C9400007F928F929F9277
S11300B0AF92BF92CF92DF92EF92FF920F931F9372
S11300C0CF93DF9327B1277827B928B1277828B9A8
S11300D0179A00C000C026B1B6B1A6B176B0179881
S11300E000C000C0179A00C000C086B096B0B6B079
S11300F0A6B0179800C000C037B1386737B9269545
S11301002695269580E8289FE00111249E01332737
S1130110B4FB882780F990E000249695879507948E
S1130120969587950794982F802D822B932BA5FB6A
S1130130EE24E0F8F12CD701AA0FBB1FA295B295CB
S1130140B07FBA27A07FBA27A82BB92B76FA00274D
S113015000F910E0C80182959295907F9827807FDE
S113016098278A2B9B2B83FACC24C0F8D12C960198
S1130170220F331F220F331F220F331F94FAEE274F
S1130180E0F9F0E0EE0FFF1FEE0FFF1F2E2B3F2BC9
S1130190A6FA442740F950E0422B532BB5FA6627C0
S11301A060F970E0660F771F462B572B842BDF9185
S11301B0CF911F910F91FF90EF90DF90CF90BF9060
S11301C0AF909F908F907F9008951598169A00C0D5
S11301D000C00E94550008950E94E500881F8827EA
S11301E0881F08950E94EC008111FCCF0895CF93DD
S11301F0179A98B1C82FCC1FCC27CC1FCC0FCC0F8B
S1130200CC0F97789C2B86FB442740F950E042950D
S11302105295507F5427407F5427492B982F907232
S1130220492B84FBAA27A0F9B0E00024B695A79532
S11302300794B695A7950794BA2FA02DA42BA8B917
S113024000C000C0179800C000C0179A98B1282FAA
S1130250217030E00024369527950794369527952C
S11302600794322F202D9778292B982F9870292BBB
S113027082FBEE27E0F9F0E0E295F295F07FFE27AD
S1130280E07FFE27E22B81FB662760F970E0660FB2
S1130290771F62957295707F7627607F76276E2B25
S11302A068B900C000C0179800C000C0CF9108957D
S11302B0CF93C82F0E94F2001598169800C000C072
S11302C08C2F0E94F700CF91089587B1886787B972
S11302D081B1806E81B91598169800C000C0179A34
S11302E088B18778806288B900C000C0179800C0C0
S11302F000C088E20E9458018FE00E94580186E005
S11303000E94580181E00E9458010895CF93C82F9C
S11303100E94F200159A169800C000C08C2F0E940B
S1130320F700CF910895CF93DF93EC018881882360
S113033031F021960E94860189918111FBCFDF91D2
S1130340CF910895CF93DF93EB0180680E94580109
S1130350CE010E949301DF91CF9108959A0121501B
S11303603109121613064CF4FC01A901480F591F58
S113037091819193E417F507D9F708950F931F938B
S1130380CF93DF9300D000D01F92CDB7DEB71A828F
S11303901982FE01339683E0DF011D928A95E9F705
S11303A000E010E00E94C1028C830F5F1F4F64E0E5
S11303B071E0CE0101960E94D802892B49F044E0F5
S11303C050E060E070E0CE0101960E94AE01EACFF9
S11303D0C8010F900F900F900F900F90DF91CF9165
S11303E01F910F9108950F931F93CF93DF93CDB770
S11303F0DEB7C054D1090FB6F894DEBF0FBECDBF2F
S113040089E091E00E94C9020E94BE011F9283E329
S11304108F9382E391E09F938F938E010F5F1F4F21
S11304201F930F930E94E102C8010E94C9020E9417
S1130430BE0184E491E00E94C9020E94BE0188E7E3
S113044091E00E94C9020E94BE010F900F900F908C
S11304500F900F900F90C05CDF4F0FB6F894DEBF83
S11304600FBECDBFDF91CF911F910F9108951F92C1
S11304700F920FB60F9211242F933F934F935F93D4
S11304806F937F938F939F93AF93BF93EF93FF9358
S11304901A9905C08BB180588BB90E94F301FF9162
S11304A0EF91BF91AF919F918F917F916F915F91E8
S11304B04F913F912F910F900FBE0F901F90189561
S11304C0789422982A9AE8E6F0E08081826080831A
S11304D0ECE6F0E08081846080830E9465010E94E4
S11304E09C022FEF83ED90E3215080409040E1F790
S11304F000C00000579A5F9A3A9A429A88E891E0BD
S11305000E94C9020E94BE018FE891E00E94C902C4
S11305100E94BE018DE991E00E94C9020E94BE01C1
S113052081EB91E00E94C9020E94BE0166EB71E07A
S113053080E00E94A201FFCF1092C50088E0809362
S1130540C400E2ECF0E080818F7B808380818F7730
S113055080838081846080838081877F80838081A1
S11305608F7E808380818F7D808388E18093C1002A
S11305700895E0ECF0E0908195FFFDCF8093C600F4
S11305800895E0ECF0E080818823ECF78091C600C8
S11305900895CF93DF93EC018881882331F021966D
S11305A00E94B90289918111FBCFDF91CF91089507
S11305B0FB01DC018D91019080190110D9F3990B95
S11305C00895AEE0B0E0E7EEF2E00C94A2050D89E8
S11305D01E8986E08C831A8309838FEF9FE79E83AD
S11305E08D83AE01475E5F4F6F89788DCE01019692
S11305F00E940303EF81F885E00FF11F10822E960D
S1130600E4E00C94BE05ABE0B0E0E9E0F3E00C9468
S113061094056C017B018A01FC0117821682838197
S113062081FFCCC1CE0101963C01F6019381F70113
S113063093FD859193FF81917F01882309F4BAC1C9
S1130640853239F493FD859193FF81917F01853241
S113065029F4B60190E00E94FA04E7CF912C212CF2
S1130660312CFFE1F315D8F08B3279F038F4803275
S113067079F08332A1F4232D20611DC08D3261F005
S1130680803369F4232D216016C0832D8260382EB7
S1130690E32DE4603E2E2AC0F32DF8601DC037FC24
S11306A02DC020ED280F2A3040F08E32B9F436FCEC
S11306B081C1232D2064322E19C036FE06C08AE083
S11306C0989E200D1124922E11C0EAE02E9E200D3A
S11306D01124222EF32DF0623F2E08C08C3621F413
S11306E0832D8068382E02C0883641F4F70193FDCB
S11306F0859193FF81917F018111B3CF982F9F7DC5
S11307009554933028F40C5F1F4F9FE399830DC0D9
S1130710833631F0833771F0833509F059C021C035
S1130720F801808189830E5F1F4F88248394912C64
S1130730530113C02801F2E04F0E511CF801A080B0
S1130740B18036FE03C0692D70E002C06FEF7FEF09
S1130750C5010E94EF044C018201F32DFF773F2E67
S113076016C0280122E0420E511CF801A080B1807D
S113077036FE03C0692D70E002C06FEF7FEFC50144
S11307800E94E4044C01F32DF0683F2E820133FCF7
S11307901BC0822D90E088169906B0F4B60180E261
S11307A090E00E94FA042A94F4CFF50137FC859175
S11307B037FE81915F01B60190E00E94FA04211096
S11307C02A9421E0821A91088114910471F7E8C0F7
S11307D0843611F0893641F5F80137FE07C060818F
S11307E07181828193810C5F1F4F08C06081718188
S11307F0072E000C880B990B0E5F1F4FF32DFF760D
S11308003F2E97FF09C090958095709561957F4F15
S11308108F4F9F4FF0683F2E2AE030E0A3010E94E3
S11308203605882E861845C0853731F4232D2F7E52
S1130830B22E2AE030E025C0932D997FB92E8F3651
S1130840C1F018F4883579F0B5C0803719F08837CD
S113085021F0B0C0E92FE061BE2EB4FE0DC0FB2D27
S1130860F460BF2E09C034FE0AC0292F2660B22EC0
S113087006C028E030E005C020E130E002C020E1FD
S113088032E0F801B7FE07C06081718182819381F3
S11308900C5F1F4F06C06081718180E090E00E5FA5
S11308A01F4FA3010E943605882E8618FB2DFF7763
S11308B03F2E36FE0DC0232D2E7FA22E891458F410
S11308C034FE0BC032FC09C0832D8E7EA82E05C0D9
S11308D0B82CA32C03C0B82C01C0B92CA4FE0FC0A3
S11308E0FE01E80DF11D8081803321F49A2D997E5B
S11308F0A92E09C0A2FE06C0B394B39404C08A2DE5
S1130900867809F0B394A3FC11C0A0FE06C0B2140B
S113091088F4280C922C9B180EC0B21460F4B60113
S113092080E290E00E94FA04B394F7CFB21418F472
S11309302B1802C0982C212CA4FE10C0B60180E311
S113094090E00E94FA04A2FE17C0A1FC03C088E74D
S113095090E002C088E590E0B6010CC08A2D86784C
S113096059F0A1FE02C08BE201C080E2A7FC8DE237
S1130970B60190E00E94FA04891438F4B60180E3C9
S113098090E00E94FA049A94F7CF8A94F301E80D58
S1130990F11D8081B60190E00E94FA048110F5CF28
S11309A0222009F442CEB60180E290E00E94FA04CB
S11309B02A94F6CFF6018681978102C08FEF9FEFCC
S11309C02B96E2E10C94B005FC0105906150704057
S11309D00110D8F7809590958E0F9F1F0895FC0104
S11309E06150704001900110D8F7809590958E0F5A
S11309F09F1F08950F931F93CF93DF93FB012381D0
S1130A0021FD03C08FEF9FEF2CC022FF16C046814B
S1130A105781248135814217530744F4A081B18161
S1130A209D012F5F3F4F318320838C932681378133
S1130A302F5F3F4F3783268314C08B01EC01FB01EA
S1130A400084F185E02D0995892BE1F6D8011696ED
S1130A508D919C911797019617969C938E93169758
S1130A60CE01DF91CF911F910F910895FA01AA272A
S1130A70283051F1203181F1E8946F936E7F6E5FDD
S1130A807F4F8F4F9F4FAF4FB1E03ED0B4E03CD08B
S1130A90670F781F891F9A1FA11D680F791F8A1F6E
S1130AA0911DA11D6A0F711D811D911DA11D20D0D5
S1130AB009F468943F912AE0269F11243019305D8F
S1130AC03193DEF6CF010895462F4770405D419380
S1130AD0B3E00FD0C9F7F6CF462F4F70405D4A33CD
S1130AE018F0495D31FD4052419302D0A9F7EACF95
S1130AF0B4E0A6959795879577956795BA95C9F7C4
S1130B0000976105710508959B01AC010A2E0694B6
S1130B105795479537952795BA95C9F7620F731F6F
S1130B20841F951FA01D08952F923F924F925F92AC
S1130B306F927F928F929F92AF92BF92CF92DF92E9
S1130B40EF92FF920F931F93CF93DF93CDB7DEB74E
S1130B50CA1BDB0B0FB6F894DEBF0FBECDBF0994E2
S1130B602A88398848885F846E847D848C849B8439
S1130B70AA84B984C884DF80EE80FD800C811B8147
S1130B80AA81B981CE0FD11D0FB6F894DEBF0FBE76
S10D0B90CDBFED010895F894FFCFE6
S1130B9A3E0D0A004F4B0D0A0041542B4349505352
S1130BAA544152543D302C22544350222C22313980
S1130BBA322E3136382E342E33222C383038300D3A
S1130BCA0A0041542B43495053454E443D302C2589
S1130BDA640D0A00474554202F6170692F73616CB4
S1130BEA757420485454502F312E310D0A486F73AE
S1130BFA743A203139322E3136382E342E333A387B
S1130C0A3038300D0A0D0A0041542B434950434CE5
S1130C1A4F53453D300D0A00415445300D0A0041F9
S1130C2A542B4349504D55583D310D0A0041542B1C
S1130C3A4349505345525645523D312C38300D0ADA
S10D0C4A0041540D0A006F6B000016
S9030000FC
